:03000000020430C7
:0C043000787FE4F6D8FD75813002047777
:10013600596F752077696E210020206E65787420CE
:10014600200041726520796F75207265616479209F
:100156003F2000596F75206C6F73650020206F7605
:1001660065722020002D2D57696C64202048756E1D
:100176007465722D2D002D2D57696C6420204875ED
:100186006E7465722D2D002D6C6574277320676162
:100196006D696E6720212D0073746172743A6B3439
:1001A600206261636B3A6B35002D7468616E6B7308
:1001B60020666F7220706C6179696E672D2D746888
:1001C600616E6B7320666F7220706C6179696E6701
:1001D6002D00283D5E5F5E3D2920283D5E5F5E3D29
:1001E6002920283D5E5F5E3D2920283D5E5F5E3DFD
:1001F6002920283D5E5F5E3D292000533A202020BD
:100206002020202020202020202020004C3A2020C2
:1002160020202020202020202020202000202020F8
:1002260020202020202020202020202020004541A2
:0F02360053593A4B342020484152443A4B35003B
:10062B000209000010132020202020202020202051
:10063B00202020202020010C00010D00010F0001C3
:0B064B001000010800010B000111006D
:08000300D2A0E4F580C2A022A6
:07071100AE071FEE70FA2293
:1005C600AF26748D2526F58274013525F583E493CF
:0A05D600FB7D011206AD7F3C7E00A4
:1005E000AD07AC06ED1DAE0470011C4E600C7FF52E
:0B05F0001207117FF512071180EA22AC
:1006F5007580FFC290D291C2A500D2A5E5803322B4
:0E06C5007F381206D37F057E001205E07F38D5
:1006D3001206F540FBC290C291D2A58F8000C2A53D
:0106E30022F4
:1006E4001206F540FBD290C291D2A58F8000C2A51C
:0106F40022E3
:0C0705007F011206D37F057E000205E094
:0C05FB001207057A01796B7BFFE4FDFF1D
:10060700AE07ED7005EE24808003EE24C0FF1206CE
:10061700D31202EAFF600C1206E4740129F9E43AE6
:04062700FA80EE2245
:0906A400E5232430FB7D017F06F3
:1006AD00AE07AC03ED7005EE24808003EE24C0FF91
:0806BD001206D3AF040206E4AB
:100657001206C57F057E001205E01206C57F081247
:1006670006D37F011206D37F061206D31F7E001220
:0706770005E07F0C0206D331
:10067E001205797C007D021203038D09E5096524BC
:10068E0060EE1205797C007D08120303ED2408F557
:06069E000A651260ED2266
:10038E00AD24AF12E4FE20B405F5240E803420B562
:10039E00077524017E01802A20B61330B6FD151292
:1003AE00E512C3940850037512087E01801420B71D
:1003BE001130B7FD0512E512D3940F400375120FDD
:1003CE007E01BE010E7B201206AD7B48AD24AF121E
:1003DE001206ADE52465097048E512650A7042C241
:1003EE008C7508017BFF7A017936FD7F08120607AE
:1003FE007A01793F0D7F08120607050BE50B75F0A4
:10040E000A842430FB7F021206ADE50B75F00A84D8
:10041E00E5F02430FB7F031206AD7FF47E0112055A
:01042E00E0ED
:01042F0022AA
:07071800E4F524751208222C
:1005260012067EE4F52BF52C900008E509B52C158E
:10053600E4B52B11E50AB5820CE4B58308AF82ADAC
:100546002C7B508006AF82AD2C7B201206ADA3E536
:10055600826410458370D4052CE52C7002052BC3EC
:100566009402E52B6480948040BE7B48AD24AF1294
:030576000206ADCD
:10000E007BFF7A0279347D01E4FF12060720B608E1
:10001E0030B6FDE4F511800920B7F230B7FD751149
:10002E00017A0179481206027A0279230DE4FF1251
:10003E000607752700752833AB287D017F0712064A
:10004E00AD7FF47E011205E0E52815287002152714
:10005E00C3E5289431E5276480948050DB120705B0
:10006E007BFF7A027912E4FDFF1206077A0279010C
:10007E000DE4FF1206077B307F021206AD7F0312DE
:10008E0006AD7B541D7F061206AD120718752700AC
:10009E00752801AE27AF287C007D0A120303EF24DA
:1000AE0030FBE4FD7F021206ADAE27AF287C007D4B
:1000BE000A120303ED2430FBE4FD7F031206AD129A
:1000CE0005791205BB120526E4F50E752305758913
:1000DE0001758C4CF58AD2AFD2A9D28CF5081206D6
:1000EE00A4E523D39400400BE508640160051203D8
:1000FE008E80EEE523D394005023C28C7BFF7A01D1
:10010E007959E4FD7F081206077A0179620D7F089E
:10011E00120607E4F50B7FF47E010205E00528E5E3
:08012E0028700205270200A160
:100245001200031206571205FBE4F525F5261205E3
:10025500C60526E52670020525C39410E5256480AC
:10026500948040EA802E20B64130B6FD12000E7F04
:10027500E87E031205E01205FBE4F525F5261205D7
:10028500C60526E52670020525C39410E52564807C
:10029500948040EA7FC87E001205E07BFF7A0179F1
:1002A5009E7D01E4FF12060780BC20B7B930B7FD7B
:1002B5001207057F2C7E011205E07BFF7A0179D8B4
:1002C500E4FDFF1206077A0179AF0DE4FF12060778
:1002D5007F2C7E011205E07F181206D37F5E7E011A
:0502E5001205E080F2AB
:03000B000204BC30
:1004BC00C0E0C0F0C083C082C0D075D000C000C006
:1004CC0001C002C003C004C005C006C007E50ED3BE
:1004DC0094145004050E80271523E523640360054E
:1004EC00E523B40108E511B401031205261206A494
:1004FC00750E00758C4C758A00D2AFD2A9D28CD0F7
:10050C0007D006D005D004D003D002D001D000D043
:0A051C00D0D082D083D0F0D0E032BE
:10043C00020245E493A3F8E493A34003F68001F28F
:10044C0008DFF48029E493A3F85407240CC8C333C1
:10045C00C4540F4420C8834004F456800146F6DF90
:10046C00E4800B010204081020408090062BE47EEF
:10047C00019360BCA3FF543F30E509541FFEE49385
:10048C00A360010ECF54C025E060A840B8E493A34C
:10049C00FAE493A3F8E493A3C8C582C8CAC583CA77
:1004AC00F0A3C8C582C8CAC583CADFE9DEE780BE2F
:0106560000A3
:1002EA00BB010689828A83E0225002E722BBFE0212
:0902FA00E32289828A83E4932245
:10030300C2D5EC30E709B2D5E4C39DFDE49CFCEE15
:1003130030E715B2D5E4C39FFFE49EFE120339C351
:10032300E49DFDE49CFC800312033930D507C3E44C
:060333009FFFE49EFE2284
:10057900AC2DAD2EAE2FAF307810EC4D4E4F700430
:100589007CA57DA5C3EC13FCED13FDEE13FEEF1363
:10059900FF5010EC64CCFCED644CFDEE644EFEEFB4
:1005A90064CEFFD8DF8C2D8D2E8E2F8F30EE547FA9
:0D05B900FE228E2D8F2E74A5F52FF5302219
:10033900BC000BBE0029EF8DF084FFADF022E4CCA8
:10034900F875F008EF2FFFEE33FEEC33FCEE9DEC71
:10035900984005FCEE9DFE0FD5F0E9E4CEFD22EDB7
:10036900F8F5F0EE8420D21CFEADF075F008EF2F01
:10037900FFED33FD4007985006D5F0F222C398FDF2
:050389000FD5F0EA228F
:00000001FF
